:100000000C942A000C9447000C9447000C94470071
:100010000C9447000C9447000C9447000C94470044
:100020000C9447000C9447000C9447000C94470034
:100030000C9447000C9447000C9447000C94470024
:100040000C9447000C9447000C9447000C94470014
:100050000C94470011241FBECFE5D4E0DEBFCDBF16
:1000600010E0A0E6B0E0E4E8F5E002C005900D92F3
:10007000A038B107D9F710E0A0E8B0E001C01D92A8
:10008000A138B107E1F70E9449000C94C0020C941A
:1000900000000E9449010E94A30180E090E00895C1
:1000A00095B39F7095BB9698979A25B3982F907F9C
:1000B000292B25BB25B3922B95BB979895B39F70A1
:1000C00095BB9698979A95B38295807F982B95BB10
:1000D00095B3892B85BB9798089595B39F7095BB71
:1000E000969A979A25B3982F907F292B25BB25B3F5
:1000F000922B95BB979895B39F7095BB969A979ABC
:1001000095B38295807F982B95BB95B3892B85BB42
:100110009798089581E00E945000089582E00E941F
:10012000500008951F93882311F41CE001C01EE0C5
:10013000611111608F9A8E9A84B3806F84BB85B3EE
:100140008F7085BB80E09698979A95B3906395BB26
:1001500095B3906395BB97988F5F8330A1F785B374
:100160008F7085BB9698979AAD9AAD9A979888E2CA
:100170000E946D00812F0E9450000E948A000E9400
:100180008E001F910895823029F4862F80540E949A
:1001900050000895862F80580E9450000895CF93F4
:1001A000DF93EC018881882331F021960E946D0055
:1001B00089918823D9F7DF91CF9108956F927F922B
:1001C0008F929F92AF92BF92CF92DF92EF92FF9267
:1001D0000F931F93DF93CF93CDB7DEB7E42E6DB6A9
:1001E0007EB62DB73EB7241B31090FB6F8943EBF3B
:1001F0000FBE2DBF0DB71EB70F5F1F4F4801442321
:1002000019F1FF240F2EFAE0AF2EF0E0BF2EF0E040
:10021000CF2EF0E0DF2EF02DA60195010E948A027C
:10022000605DF80161938F01622F732F842F952FEA
:10023000F394FE1488F3F401EE0DF11D31978081E3
:100240000E946D00EA94B9F70FB6F8947EBE0FBE17
:100250006DBECF91DF911F910F91FF90EF90DF90D6
:10026000CF90BF90AF909F908F907F906F900895A8
:100270009C01220F331F220F331F220F331F211522
:10028000310531F080E090E0019682179307E0F3AA
:1002900008958FEF81BB82BB84BB85BB1ABA1BBAA2
:1002A000379A86B1876086B987B1806C87B987B184
:1002B000807E816087B908958430910599F18530F9
:1002C000910584F48130910521F1823091051CF46F
:1002D0000097E1F0089582309105F1F083309105A7
:1002E00089F51DC08730910531F1883091053CF4C6
:1002F00085309105D1F08630910521F519C08830FF
:100300009105E1F089309105E9F41AC080E885BBD8
:10031000089583EE85BB089584E485BB089581E448
:1003200085BB089583E285BB089581E185BB08956F
:1003300080E185BB089583EC85BB089515BA0895C7
:1003400081E085BB0895EF92FF920F931F93CF93A7
:10035000DF938FEF82BBC0E0D0E00FEF18E0EE2418
:10036000FF2401C0E70182B3882321F082B3880F04
:1003700082BB01C002BBCE010E945C0185B3812714
:1003800085BB2196CA30D1056CF7EDCFAC01440F87
:10039000551F440F551F440F551F4115510549F472
:1003A00008950197F1F72F5F3F4F2417350718F095
:1003B000089520E030E085E390E0F3CF86B38F70BE
:1003C0008F3041F0B09B09C0B19B09C0B29B09C0FE
:1003D000B39B09C080918000089581E0089582E078
:1003E000089583E0089584E00895DF92EF92FF92EC
:1003F0000F931F9380E885BB0F2EF3EFEF2EF02DA8
:100400000F2EFFECFF2EF02D0FE30F2EFCEFDF2E53
:10041000F02D0E94DE01182F8823D9F390E00E946E
:100420005C01123061F0133018F4113091F705C0FF
:10043000133039F0143069F706C0D2BAEACFE2BA05
:10044000E8CFF2BAE6CF02BBE4CFEF92FF920F9370
:100450001F93CF93DF938D9A959885B38F6085BB5B
:1004600080E060E00E94920081E060E00E94C300B2
:1004700080E690E00E94CF0082E060E00E94C3002E
:100480008FE690E00E94CF0004E610E00F2EFDE71B
:10049000EF2EF0E0FF2EF02D369A82E066E00E940B
:1004A000C30084B195B19C01220F331F280F391F5F
:1004B000220F331F220F331F220F331F820F931F70
:1004C000B8010E947702EC01882777FD8095982F6C
:1004D00042E00E94DE00C7010E94CF00BE018827D3
:1004E00077FD8095982F42E00E94DE00D5CF97FBE4
:1004F000092E07260AD077FD04D02ED006D0002082
:100500001AF4709561957F4F0895F6F7909581954F
:100510009F4F0895A1E21A2EAA1BBB1BFD010DC01F
:10052000AA1FBB1FEE1FFF1FA217B307E407F507A3
:1005300020F0A21BB30BE40BF50B661F771F881F7F
:10054000991F1A9469F760957095809590959B0115
:10055000AC01BD01CF010895AA1BBB1B51E107C02F
:10056000AA1FBB1FA617B70710F0A61BB70B881F43
:10057000991F5A95A9F780959095BC01CD010895D2
:04058000F894FFCF1D
:100584004E677579656E5475616E3433313200543B
:10059400656D703A20202020446F2043002E000017
:00000001FF
